:040000008A11112828
:10000800FE00030EF6000408F7000A08F800831241
:1000180003137F08F9008A11B0288A1113288A115E
:100028003D218A11CE008A113E218A11CF008A1102
:100038003F218A11D0008A1140218A11D1008313EF
:100048002030840047308A1135218A1170308400AD
:1000580076308A11352183018A11322802308312C1
:1000680003179E009F0183160313851487018312CB
:10007800031387018430831203179900AB3098006B
:10008800831603138D16831203138D120B17023078
:1000980083120313CD004530CC00A930CB00CB0B25
:1000A8005328CC0B5328CD0B532800008B17FF3057
:1000B80083120313CB004B08A0000830CB004B0879
:1000C800A100FF30CB004B08A200A301A401FF3020
:1000D800CB004B08A5009130CB004B08A60091300F
:1000E800CB004B08A700A801A901FF30CB004B08A3
:1000F800AA008030CB004B08AB008030CB004B0807
:10010800AC00AD01AE01FF30CB004B08AF00803032
:10011800CB004B08B0008030CB004B08B1008F01FA
:100128008E01B130900045084604031997288A11BA
:10013800F8208A1183120313450846040319A728D7
:10014800C501C60197280130C5000030C600F4304B
:10015800CE000130CF00972883120317191BEA2815
:10016800AB301806031DEA288312031310100F087A
:10017800FB000E08FA0010147B08803AFF00BA3022
:100188007F02031DC92899307A02031CEA288312CA
:100198000313450846040319DE28CE01CF010130B8
:1001A800F4000030F500C501C6017B08F3007A08A9
:1001B800F200E628F430CE000130CF000130C5004F
:1001C8000030C60010108F018E0110148312031323
:1001D8008D127908FF0078088A0077088400760E67
:1001E8008300FE0E7E0E0900831203135008FF3EA3
:1001F800C90051080318013EFF3ECA00CA1B1B294B
:100208004908203E84008313000887004F08C8006F
:100218004E08C7008A111D218A11FF30831203136B
:10022800C9070318CA0AFF30CA07CA1F0429870169
:100238000800831203134808F5004708F4007508FE
:10024800803AFF0080307F02031D2C2901307402A0
:10025800031C0800FF30F4070318F50AFF30F50700
:10026800232964008001840A040603190034040663
:0A0278003629F43401340834003450
:02400E00D4FCE0
:00000001FF
