:040000008A11112828
:10000800FE00030E83120313CE000408CF000A0873
:10001800D0007F08D1008A11CA2B8A1113288316B1
:1000280003138A1127268A11DA008A1128268A11D1
:10003800DB008313A0308400D0308A111F2683127E
:100048000313D401D50183018A11562D8316031396
:10005800D301D401D101D201CE295308A03E840096
:10006800831380015308A03E840080015308023E98
:10007800B229FF30D0005308A03E84005008800009
:1000880009306E29FF30D0005308A03E8400500884
:1000980080009030D0005308013EA03E84005008F4
:1000A8008000F030A929FF30D0005308A03E84001A
:1000B8005008800081309E28F030D0005308A03EC0
:1000C80084005008800090306E29FF30D00053081B
:1000D800A03E8400500880009130D0005308013EB3
:1000E800A03E8400500880009130A929FF30D0003C
:1000F8005308A03E8400500880000930D0005308FF
:10010800013EA03E8400500880000930A929FF3034
:100118002B29FF30D0005308A03E840050088000EF
:1001280008306E298130D0005308A03E8400500862
:100138008000FF30D0005308013EA03E84005008E4
:1001480080008130A9298130D0005308A03E840066
:1001580050088000FF30D0005308013EA03E8400C4
:10016800500880005308023EA03E84008001800AA7
:10017800B029FF30D0005308A03E8400500880000A
:100188002430D0005308013EA03E8400500880006F
:100198004230A929FF30D0005308A03E84005008FF
:1001A80080008030D0005308013EA03E84005008F3
:1001B80080008030A929FF30D0005308A03E840079
:1001C800500880000F306E29FF30D0005308A03E41
:1001D8008400500880005308013EA03E840080013E
:1001E800800A7529FF30D0005308A03E84005008CB
:1001F800800081306E29FF30D0005308A03E840073
:1002080050088000093090293F30D0005308A03EA4
:100218008400500880006130D0005308013EA03EA1
:10022800840050088000BF30A929F030D00053085E
:10023800A03E8400500880001030D0005308013ED2
:10024800A03E8400500880001030A9299F30D000BB
:100258005308A03E8400500880009130D000530815
:10026800013EA03E840050088000F130A9290830E2
:10027800D0005308A03E840050088000FF30D00012
:100288005308013EA03E8400500880000830A92988
:10029800FF30D0005308A03E840050088000803012
:1002A8006E296030D0005308A03E840050088000BA
:1002B8008030D0005308013EA03E840050088000E2
:1002C8006030A929FF30D0005308A03E84005008B0
:1002D8008000F030D0005308013EA03E8400500852
:1002E8008000FF30A929C330D0005308A03E840005
:1002F800500880003C30D0005308013EA03E8400E6
:1003080050088000C330A9290F30D0005308A03E00
:10031800840050088000F830D0005308013EA03E09
:100328008400500880000F30A929E130D00053081C
:10033800A03E8400500880009930D0005308013E48
:10034800A03E8400500880008730D0005308023E49
:10035800A03E8400500880005308033ED300540890
:100368000318013E003ED4005308A03E84008001DB
:100378005308A03E840080015308023ED30054086D
:100388000318013E003ED4000130D1070318D20AF9
:100398000030D2075208803AD0005908803A5002FB
:1003A800031DD829580851020318342A8316031349
:1003B8005108C33E840083130008203A03193128EA
:1003C800613A03193D28033A03194628013A0319EB
:1003D8005728073A03196028013A03196928033A8C
:1003E80003197A28013A03198B280F3A03198D2823
:1003F800013A03199628033A0319A728013A031961
:10040800BD28073A0319CE28013A0319DF28033A11
:100418000319E828013A0319F6281F3A0319FF2897
:10042800013A03190829033A03191929013A03194A
:100438002A29073A03193B29013A03194C29033A97
:1004480003195529013A031966290F3A031977291F
:10045800013A03198829033A03199929B829B829AF
:1004680083160313540883120313D500831603134A
:10047800530883120313D4000800831203132008BF
:10048800A6002108A7002208A8000310270D280DA0
:10049800A9002908AA002A08031D592A0030A0002B
:1004A8000030A1000030A20008002308A60024089C
:1004B800A7002508A8000310270D280DA900290862
:1004C800AF002F08031D6F2A0030A0000030A100E4
:1004D8000030A20008002F087B3EA6002608AA07C5
:1004E8002008A6002108A7002208A8001030031041
:1004F800A80CA70CA60CFF3E031D7B2A2608A90002
:100508002908AF002308A6002408A7002508A8008A
:1005180010300310A80CA70CA60CFF3E031D8D2A53
:100528002608A9002908AF068030A6002608AF05CE
:10053800A117A417FF30A305FF30A4050030A505B7
:100548000030AB000030AC000030AD000730A60032
:100558002608AE00201CBE2A2308AB072408031176
:100568000318240A031DAC07250803110318250ADC
:10057800031DAD0701300310A20CA10CA00CFF3E17
:10058800031DBF2A01300310A30DA40DA50DFF3EC6
:10059800031DC72A0130AE02031DAE2A0930A6008A
:1005A8002608AE00201CE62A2308AB0724080311FE
:1005B8000318240A031DAC07250803110318250A8C
:1005C800031DAD0701300310A20CA10CA00CFF3EC7
:1005D800031DE72A01300310AD0CAC0CAB0CFF3E39
:1005E800031DEF2A0130AE02031DD62A2B08F000A6
:1005F8002C08F1002D08F2002A08A6002608F300AE
:100608002F08A7002708F4008A11EA24700883122B
:100618000313A0007108A1007208A2000800831249
:1006280003133308B6003408B7003508B8000310C0
:10063800370D380DB9003908BE003E08031D2B2BB5
:100648000030B0000030B1000030B20008003008BF
:10065800B6003108B7003208B8000310370D380D5E
:10066800B9003908BF003F08031D412B0030B00016
:100678000030B1000030B20008000030BB0000308C
:10068800BC000030BD0089303F07B6003608BE0206
:100698003308B6003408B7003508B8001030031026
:1006A800B80CB70CB60CFF3E031D532B3608B90027
:1006B8003908BF003008B6003108B7003208B80062
:1006C80010300310B80CB70CB60CFF3E031D652B99
:1006D8003608B9003908BF068030B6003608BF05AD
:1006E800B417FF30B305FF30B4050030B505B117B6
:1006F800FF30B005FF30B1050030B2051830B60044
:100708003608BA0001300310BB0DBC0DBD0DFF3E0D
:10071800031D872B32083502031D982B310834023C
:10072800031D982B30083302031CA52B3008B30295
:100738003108031C310FB4023208031C320AB50217
:100748003B1401300310B30DB40DB50DFF3E031D6E
:10075800A62B0130BA02031D862B3B08F0003C088B
:10076800F1003D08F2003E08B6003608F3003F08E5
:10077800B7003708F4008A11EA24700883120313BB
:10078800B0007108B1007208B200080010100F081C
:10079800D3000E08D200101483120317191BEA2B7A
:1007A800831203135308803AFF00B6307F02031DFB
:1007B800DF2BB1305202031C4E2C83160313DA01CF
:1007C800DB010130CE000030CF00482C191F4E2C21
:1007D800831203135308803AFF0085307F02031DFC
:1007E800F72BDD305202031C4E2C831203135308DF
:1007F800F9005208F8008A11E5258A117808831251
:100808000313B3007908B4007A08B5005508F90055
:100818005408F8008A11E5258A1178088312031311
:10082800A3007908A4007A08A5009A30A00019301E
:10083800A1004030A2008A1141228A1183120313B9
:100848002008B0002108B1002208B2008A11132341
:100858008A11831203133008C0003108C10032081E
:10086800C2008A115C248A1183120313410883167B
:100878000313DB0083120313400883160313DA0003
:100888000130CC000030CD008312031310108F010B
:100898008E011014831203138D125108FF005008A3
:1008A8008A004F0884004E0E8300FE0E7E0E09005B
:1008B800831203134008C4004108C5004208C6005B
:1008C8000310450D460DC7004708CD004D08031D10
:1008D800762C0030C3000030C2000030C100003068
:1008E800C00008004008C4004108C5004208C6000E
:1008F80017300310C60CC50CC40CFF3E031D7D2C1D
:100908004408C7004708C800C117FF30C005FF30BA
:10091800C1050030C2054008C9004108CA004208A4
:10092800CB00CC018E30CD02CD1FB82C4D08803ABB
:100938008F3E0318A82C0030C3000030C2000030DE
:10094800C1000030C000080001300310CC0CCB0CF3
:10095800CA0CC90CFF3E031DA92C0130C400440871
:10096800CD070319D32CA82C18304D02031CD02C0A
:100978000030C3000030C2000030C1000030C000A9
:1009880008000130C4000310C90DCA0DCB0DCC0DF1
:10099800C40BC72C0130CD024D08031DC52C4808D7
:1009A8000319E12CC909CA09CB09CC09C90A0319D9
:1009B800CA0A0319CB0A0319CC0A4C08C3004B080E
:1009C800C2004A08C1004908C0000800730803199A
:1009D800F22C720871047004031D052D0030F0001C
:1009E8000030F1000030F20008000130F500750811
:1009F800F30701300310F20CF10CF00CFF3E031D5D
:100A0800FE2CFE3072050319202DF92C0130F5005B
:100A18007508F3070130F007003003180130F107BB
:100A2800003003180130F20701300310F20CF10C0A
:100A3800F00CFF3E031D192DFF30720503192F2DF1
:100A48000A2D0130F30201300310F00DF10DF20D03
:100A5800FF3E031D282DF11B352D023073020318AC
:100A6800252D73183D2DFF30F0057F30F105FF303F
:100A7800F2050310F30C7308F500F601F7011030C6
:100A88000310F50DF60DF70DFF3E031D442D7508F7
:100A9800F0047608F1047708F204740803190800D2
:100AA800F21708000230831203179E009F01831675
:100AB800031385148701831203138701843083127B
:100AC80003179900AB309800831603138D16831211
:100AD80003138D120B17533083160313D5005508D3
:100AE800C3004130D5005508C4004830D50055082A
:100AF800C5004F30D5005508C6005430D5005508FC
:100B0800C7004130D5005508C8000630D80000306D
:100B1800D9008A112A208A11023083160313D700BC
:100B28004530D600A930D500D50B982DD60B982D79
:100B3800D70B982D00008B17831203138F018E019A
:100B4800B1309000831603134C084D040319A62DE9
:100B58008A11B4258A1183160313CC01CD01A62D61
:100B6800831203135408FF3E83160313D200831223
:100B7800031355080318013EFF3E83160313D300E1
:100B8800D31BE12D5208A03E840083130008831272
:100B980003138700831603135B08D1005A08D0009B
:100BA8008A1105268A11FF3083160313D20703180A
:100BB800D30AFF30D307D31FC62D8312031387012F
:100BC8000800FD01F91FEF2DF809F909F80A0319C2
:100BD800F90AFD01FD0A7808F0007908F100F20130
:100BE8008E30FB007B08F3007D08FC007C08F400D5
:100BF8008A11EA247008F8007108F9007208FA00EE
:100C08000800831603135108CF005008CE004F0880
:100C1800803AFF0080307F02031D142E01304E02FF
:100C2800031C0800FF3083160313CE070318CF0AEE
:100C3800FF30CF070B2E64008001840A04060319D5
:0A0C480000340406202E643400344A
:02400E00D4FCE0
:00000001FF
